{
  "_format": "hh-sol-artifact-1",
  "contractName": "PresaleTokens",
  "sourceName": "contracts/PresaleTokens.sol",
  "abi": [
    {
      "anonymous": false,
      "inputs": [
        {
          "indexed": true,
          "internalType": "address",
          "name": "previousOwner",
          "type": "address"
        },
        {
          "indexed": true,
          "internalType": "address",
          "name": "newOwner",
          "type": "address"
        }
      ],
      "name": "OwnershipTransferred",
      "type": "event"
    },
    {
      "inputs": [],
      "name": "getPayment",
      "outputs": [
        {
          "internalType": "uint256",
          "name": "",
          "type": "uint256"
        }
      ],
      "stateMutability": "view",
      "type": "function"
    },
    {
      "inputs": [],
      "name": "owner",
      "outputs": [
        {
          "internalType": "address",
          "name": "",
          "type": "address"
        }
      ],
      "stateMutability": "view",
      "type": "function"
    },
    {
      "inputs": [],
      "name": "renounceOwnership",
      "outputs": [],
      "stateMutability": "nonpayable",
      "type": "function"
    },
    {
      "inputs": [
        {
          "internalType": "address",
          "name": "newOwner",
          "type": "address"
        }
      ],
      "name": "transferOwnership",
      "outputs": [],
      "stateMutability": "nonpayable",
      "type": "function"
    },
    {
      "stateMutability": "payable",
      "type": "receive"
    }
  ],
  "bytecode": "0x608060405273ba8842dbe4d5e42cec5ac65c247df0010162c1cc600260006101000a81548173ffffffffffffffffffffffffffffffffffffffff021916908373ffffffffffffffffffffffffffffffffffffffff16021790555034801561006557600080fd5b5061008261007761008760201b60201c565b61008f60201b60201c565b610153565b600033905090565b60008060009054906101000a900473ffffffffffffffffffffffffffffffffffffffff169050816000806101000a81548173ffffffffffffffffffffffffffffffffffffffff021916908373ffffffffffffffffffffffffffffffffffffffff1602179055508173ffffffffffffffffffffffffffffffffffffffff168173ffffffffffffffffffffffffffffffffffffffff167f8be0079c531659141344cd1fd0a4f28419497f9722a3daafe3b4186f6b6457e060405160405180910390a35050565b6107fe806101626000396000f3fe6080604052600436106100435760003560e01c8063715018a6146101ac5780638da5cb5b146101c3578063bb328a7d146101ee578063f2fde38b14610219576101a7565b366101a75734600160003373ffffffffffffffffffffffffffffffffffffffff1673ffffffffffffffffffffffffffffffffffffffff1681526020019081526020016000205461009391906104cd565b600160003373ffffffffffffffffffffffffffffffffffffffff1673ffffffffffffffffffffffffffffffffffffffff168152602001908152602001600020819055506000600260009054906101000a900473ffffffffffffffffffffffffffffffffffffffff1673ffffffffffffffffffffffffffffffffffffffff163460405161011e90610554565b60006040518083038185875af1925050503d806000811461015b576040519150601f19603f3d011682016040523d82523d6000602084013e610160565b606091505b50509050806101a4576040517f08c379a000000000000000000000000000000000000000000000000000000000815260040161019b906105c6565b60405180910390fd5b50005b600080fd5b3480156101b857600080fd5b506101c1610242565b005b3480156101cf57600080fd5b506101d8610256565b6040516101e59190610627565b60405180910390f35b3480156101fa57600080fd5b5061020361027f565b6040516102109190610651565b60405180910390f35b34801561022557600080fd5b50610240600480360381019061023b919061069d565b6102c6565b005b61024a61034a565b61025460006103c8565b565b60008060009054906101000a900473ffffffffffffffffffffffffffffffffffffffff16905090565b6000600160003373ffffffffffffffffffffffffffffffffffffffff1673ffffffffffffffffffffffffffffffffffffffff16815260200190815260200160002054905090565b6102ce61034a565b600073ffffffffffffffffffffffffffffffffffffffff168173ffffffffffffffffffffffffffffffffffffffff16141561033e576040517f08c379a00000000000000000000000000000000000000000000000000000000081526004016103359061073c565b60405180910390fd5b610347816103c8565b50565b61035261048c565b73ffffffffffffffffffffffffffffffffffffffff16610370610256565b73ffffffffffffffffffffffffffffffffffffffff16146103c6576040517f08c379a00000000000000000000000000000000000000000000000000000000081526004016103bd906107a8565b60405180910390fd5b565b60008060009054906101000a900473ffffffffffffffffffffffffffffffffffffffff169050816000806101000a81548173ffffffffffffffffffffffffffffffffffffffff021916908373ffffffffffffffffffffffffffffffffffffffff1602179055508173ffffffffffffffffffffffffffffffffffffffff168173ffffffffffffffffffffffffffffffffffffffff167f8be0079c531659141344cd1fd0a4f28419497f9722a3daafe3b4186f6b6457e060405160405180910390a35050565b600033905090565b6000819050919050565b7f4e487b7100000000000000000000000000000000000000000000000000000000600052601160045260246000fd5b60006104d882610494565b91506104e383610494565b9250827fffffffffffffffffffffffffffffffffffffffffffffffffffffffffffffffff038211156105185761051761049e565b5b828201905092915050565b600081905092915050565b50565b600061053e600083610523565b91506105498261052e565b600082019050919050565b600061055f82610531565b9150819050919050565b600082825260208201905092915050565b7f50726573616c65546f6b656e733a205472616e73666572206661696c65640000600082015250565b60006105b0601e83610569565b91506105bb8261057a565b602082019050919050565b600060208201905081810360008301526105df816105a3565b9050919050565b600073ffffffffffffffffffffffffffffffffffffffff82169050919050565b6000610611826105e6565b9050919050565b61062181610606565b82525050565b600060208201905061063c6000830184610618565b92915050565b61064b81610494565b82525050565b60006020820190506106666000830184610642565b92915050565b600080fd5b61067a81610606565b811461068557600080fd5b50565b60008135905061069781610671565b92915050565b6000602082840312156106b3576106b261066c565b5b60006106c184828501610688565b91505092915050565b7f4f776e61626c653a206e6577206f776e657220697320746865207a65726f206160008201527f6464726573730000000000000000000000000000000000000000000000000000602082015250565b6000610726602683610569565b9150610731826106ca565b604082019050919050565b6000602082019050818103600083015261075581610719565b9050919050565b7f4f776e61626c653a2063616c6c6572206973206e6f7420746865206f776e6572600082015250565b6000610792602083610569565b915061079d8261075c565b602082019050919050565b600060208201905081810360008301526107c181610785565b905091905056fea264697066735822122057aaa3849bd68a0f969ba8a90bc3749c87bc17be78e6b1579051e39ec771fab364736f6c63430008090033",
  "linkReferences": {},
  "deployedLinkReferences": {}
}